{
  "contractName": "StandingOrderFactory",
  "abi": [
    {
      "constant": true,
      "inputs": [
        {
          "name": "",
          "type": "address"
        },
        {
          "name": "",
          "type": "uint256"
        }
      ],
      "name": "standingOrdersByPayee",
      "outputs": [
        {
          "name": "",
          "type": "address"
        }
      ],
      "payable": false,
      "type": "function",
      "stateMutability": "view"
    },
    {
      "constant": true,
      "inputs": [
        {
          "name": "index",
          "type": "uint256"
        }
      ],
      "name": "getOwnOrderByIndex",
      "outputs": [
        {
          "name": "",
          "type": "address"
        }
      ],
      "payable": false,
      "type": "function",
      "stateMutability": "view"
    },
    {
      "constant": true,
      "inputs": [
        {
          "name": "",
          "type": "address"
        },
        {
          "name": "",
          "type": "uint256"
        }
      ],
      "name": "standingOrdersByOwner",
      "outputs": [
        {
          "name": "",
          "type": "address"
        }
      ],
      "payable": false,
      "type": "function",
      "stateMutability": "view"
    },
    {
      "constant": false,
      "inputs": [
        {
          "name": "_payee",
          "type": "address"
        },
        {
          "name": "_paymentAmount",
          "type": "uint256"
        },
        {
          "name": "_paymentInterval",
          "type": "uint256"
        },
        {
          "name": "_startTime",
          "type": "uint256"
        },
        {
          "name": "_label",
          "type": "string"
        }
      ],
      "name": "createStandingOrder",
      "outputs": [
        {
          "name": "",
          "type": "address"
        }
      ],
      "payable": false,
      "type": "function",
      "stateMutability": "nonpayable"
    },
    {
      "constant": true,
      "inputs": [],
      "name": "getNumOrdersByOwner",
      "outputs": [
        {
          "name": "",
          "type": "uint256"
        }
      ],
      "payable": false,
      "type": "function",
      "stateMutability": "view"
    },
    {
      "constant": true,
      "inputs": [
        {
          "name": "index",
          "type": "uint256"
        }
      ],
      "name": "getPaidOrderByIndex",
      "outputs": [
        {
          "name": "",
          "type": "address"
        }
      ],
      "payable": false,
      "type": "function",
      "stateMutability": "view"
    },
    {
      "constant": true,
      "inputs": [],
      "name": "getNumOrdersByPayee",
      "outputs": [
        {
          "name": "",
          "type": "uint256"
        }
      ],
      "payable": false,
      "type": "function",
      "stateMutability": "view"
    },
    {
      "anonymous": false,
      "inputs": [
        {
          "indexed": false,
          "name": "orderAddress",
          "type": "address"
        },
        {
          "indexed": true,
          "name": "owner",
          "type": "address"
        },
        {
          "indexed": true,
          "name": "payee",
          "type": "address"
        }
      ],
      "name": "LogOrderCreated",
      "type": "event"
    }
  ],
  "bytecode": "0x6060604052341561000f57600080fd5b61154a8061001e6000396000f300606060405260043610610083576000357c0100000000000000000000000000000000000000000000000000000000900463ffffffff1680630eada49f146100885780632aa2f7a41461010a578063394e0cdd1461016d5780634ae184f2146101ef5780639bfe7bd5146102c6578063dc17e808146102ef578063ff0f2e8014610352575b600080fd5b341561009357600080fd5b6100c8600480803573ffffffffffffffffffffffffffffffffffffffff1690602001909190803590602001909190505061037b565b604051808273ffffffffffffffffffffffffffffffffffffffff1673ffffffffffffffffffffffffffffffffffffffff16815260200191505060405180910390f35b341561011557600080fd5b61012b60048080359060200190919050506103c9565b604051808273ffffffffffffffffffffffffffffffffffffffff1673ffffffffffffffffffffffffffffffffffffffff16815260200191505060405180910390f35b341561017857600080fd5b6101ad600480803573ffffffffffffffffffffffffffffffffffffffff16906020019091908035906020019091905050610449565b604051808273ffffffffffffffffffffffffffffffffffffffff1673ffffffffffffffffffffffffffffffffffffffff16815260200191505060405180910390f35b34156101fa57600080fd5b610284600480803573ffffffffffffffffffffffffffffffffffffffff1690602001909190803590602001909190803590602001909190803590602001909190803590602001908201803590602001908080601f01602080910402602001604051908101604052809392919081815260200183838082843782019150505050505091905050610497565b604051808273ffffffffffffffffffffffffffffffffffffffff1673ffffffffffffffffffffffffffffffffffffffff16815260200191505060405180910390f35b34156102d157600080fd5b6102d9610787565b6040518082815260200191505060405180910390f35b34156102fa57600080fd5b61031060048080359060200190919050506107d0565b604051808273ffffffffffffffffffffffffffffffffffffffff1673ffffffffffffffffffffffffffffffffffffffff16815260200191505060405180910390f35b341561035d57600080fd5b610365610851565b6040518082815260200191505060405180910390f35b60016020528160005260406000208181548110151561039657fe5b90600052602060002090016000915091509054906101000a900473ffffffffffffffffffffffffffffffffffffffff1681565b60008060003373ffffffffffffffffffffffffffffffffffffffff1673ffffffffffffffffffffffffffffffffffffffff1681526020019081526020016000208281548110151561041657fe5b906000526020600020900160009054906101000a900473ffffffffffffffffffffffffffffffffffffffff169050919050565b60006020528160005260406000208181548110151561046457fe5b90600052602060002090016000915091509054906101000a900473ffffffffffffffffffffffffffffffffffffffff1681565b6000803387868887876104a861089b565b808773ffffffffffffffffffffffffffffffffffffffff1673ffffffffffffffffffffffffffffffffffffffff1681526020018673ffffffffffffffffffffffffffffffffffffffff1673ffffffffffffffffffffffffffffffffffffffff16815260200185815260200184815260200183815260200180602001828103825283818151815260200191508051906020019080838360005b8381101561055b578082015181840152602081019050610540565b50505050905090810190601f1680156105885780820380516001836020036101000a031916815260200191505b50975050505050505050604051809103906000f08015156105a857600080fd5b90506000803373ffffffffffffffffffffffffffffffffffffffff1673ffffffffffffffffffffffffffffffffffffffff16815260200190815260200160002080548060010182816105fa91906108ab565b9160005260206000209001600083909190916101000a81548173ffffffffffffffffffffffffffffffffffffffff021916908373ffffffffffffffffffffffffffffffffffffffff16021790555050600160008873ffffffffffffffffffffffffffffffffffffffff1673ffffffffffffffffffffffffffffffffffffffff168152602001908152602001600020805480600101828161069a91906108ab565b9160005260206000209001600083909190916101000a81548173ffffffffffffffffffffffffffffffffffffffff021916908373ffffffffffffffffffffffffffffffffffffffff160217905550508673ffffffffffffffffffffffffffffffffffffffff163373ffffffffffffffffffffffffffffffffffffffff167ff04686aac26aeff79f018c37313aedf2b683951068a75886164135be9d13ac1f83604051808273ffffffffffffffffffffffffffffffffffffffff1673ffffffffffffffffffffffffffffffffffffffff16815260200191505060405180910390a38091505095945050505050565b60008060003373ffffffffffffffffffffffffffffffffffffffff1673ffffffffffffffffffffffffffffffffffffffff16815260200190815260200160002080549050905090565b6000600160003373ffffffffffffffffffffffffffffffffffffffff1673ffffffffffffffffffffffffffffffffffffffff1681526020019081526020016000208281548110151561081e57fe5b906000526020600020900160009054906101000a900473ffffffffffffffffffffffffffffffffffffffff169050919050565b6000600160003373ffffffffffffffffffffffffffffffffffffffff1673ffffffffffffffffffffffffffffffffffffffff16815260200190815260200160002080549050905090565b604051610c22806108fd83390190565b8154818355818115116108d2578183600052602060002091820191016108d191906108d7565b5b505050565b6108f991905b808211156108f55760008160009055506001016108dd565b5090565b9056006060604052604051610c22380380610c228339810160405280805190602001909190805190602001909190805190602001909190805190602001909190805190602001909190805182019190505060008411151561005c57600080fd5b60008311151561006b57600080fd5b6002815111151561007b57600080fd5b856000806101000a81548173ffffffffffffffffffffffffffffffffffffffff021916908373ffffffffffffffffffffffffffffffffffffffff16021790555084600160006101000a81548173ffffffffffffffffffffffffffffffffffffffff021916908373ffffffffffffffffffffffffffffffffffffffff1602179055508360038190555082600481905550806006908051906020019061012092919061014e565b50816002819055506000600760006101000a81548160ff0219169083151502179055505050505050506101f3565b828054600181600116156101000203166002900490600052602060002090601f016020900481019282601f1061018f57805160ff19168380011785556101bd565b828001600101855582156101bd579182015b828111156101bc5782518255916020019190600101906101a1565b5b5090506101ca91906101ce565b5090565b6101f091905b808211156101ec5760008160009055506001016101d4565b5090565b90565b610a20806102026000396000f3006060604052600436106100db576000357c0100000000000000000000000000000000000000000000000000000000900463ffffffff1680631300a53d1461012e5780631cc1cf46146101575780635b98062814610180578063777e6b1c146101a957806378e97925146101d25780638da5cb5b146101fb57806393aacd7d146102505780639445eb3a146102de578063ae90b213146102f3578063bef973e414610348578063c35905c614610371578063ce4254ce1461039a578063cf1578dc146103c3578063cffdc976146103ec578063d1cc99761461040f575b600760009054906101000a900460ff16156100f557600080fd5b7f27b2dc149fd3048bc27eadaaf660801a04305c72845da74066a17b72d6c5bb66346040518082815260200191505060405180910390a1005b341561013957600080fd5b61014161043c565b6040518082815260200191505060405180910390f35b341561016257600080fd5b61016a610442565b6040518082815260200191505060405180910390f35b341561018b57600080fd5b610193610448565b6040518082815260200191505060405180910390f35b34156101b457600080fd5b6101bc61057b565b6040518082815260200191505060405180910390f35b34156101dd57600080fd5b6101e5610631565b6040518082815260200191505060405180910390f35b341561020657600080fd5b61020e610637565b604051808273ffffffffffffffffffffffffffffffffffffffff1673ffffffffffffffffffffffffffffffffffffffff16815260200191505060405180910390f35b341561025b57600080fd5b61026361065c565b6040518080602001828103825283818151815260200191508051906020019080838360005b838110156102a3578082015181840152602081019050610288565b50505050905090810190601f1680156102d05780820380516001836020036101000a031916815260200191505b509250505060405180910390f35b34156102e957600080fd5b6102f16106fa565b005b34156102fe57600080fd5b61030661078d565b604051808273ffffffffffffffffffffffffffffffffffffffff1673ffffffffffffffffffffffffffffffffffffffff16815260200191505060405180910390f35b341561035357600080fd5b61035b6107b3565b6040518082815260200191505060405180910390f35b341561037c57600080fd5b6103846107eb565b6040518082815260200191505060405180910390f35b34156103a557600080fd5b6103ad6107f1565b6040518082815260200191505060405180910390f35b34156103ce57600080fd5b6103d66107f7565b6040518082815260200191505060405180910390f35b34156103f757600080fd5b61040d600480803590602001909190505061081f565b005b341561041a57600080fd5b610422610943565b604051808215151515815260200191505060405180910390f35b60055481565b60035481565b600080600160009054906101000a900473ffffffffffffffffffffffffffffffffffffffff1673ffffffffffffffffffffffffffffffffffffffff163373ffffffffffffffffffffffffffffffffffffffff161415156104a757600080fd5b6104af6107b3565b90506000811115156104c057600080fd5b6104d58160055461095690919063ffffffff16565b6005819055507f3fe43822de4d3a1b02686a8e69e74f7a32cf7667d2a432a27326ec43a3b3bfd7816040518082815260200191505060405180910390a1600160009054906101000a900473ffffffffffffffffffffffffffffffffffffffff1673ffffffffffffffffffffffffffffffffffffffff166108fc829081150290604051600060405180830381858888f19350505050151561057457600080fd5b8091505090565b6000806000806000600254421015610596576000945061062a565b6004549350600760009054906101000a900460ff166105b557426105b9565b6008545b92506105d06002548461097490919063ffffffff16565b91506105e76003548361098d90919063ffffffff16565b9050610610610601600454836109a890919063ffffffff16565b8561095690919063ffffffff16565b93506106276005548561097490919063ffffffff16565b94505b5050505090565b60025481565b6000809054906101000a900473ffffffffffffffffffffffffffffffffffffffff1681565b60068054600181600116156101000203166002900480601f0160208091040260200160405190810160405280929190818152602001828054600181600116156101000203166002900480156106f25780601f106106c7576101008083540402835291602001916106f2565b820191906000526020600020905b8154815290600101906020018083116106d557829003601f168201915b505050505081565b6000809054906101000a900473ffffffffffffffffffffffffffffffffffffffff1673ffffffffffffffffffffffffffffffffffffffff163373ffffffffffffffffffffffffffffffffffffffff1614151561075557600080fd5b600061075f6107f7565b1315151561076957fe5b426008819055506001600760006101000a81548160ff021916908315150217905550565b600160009054906101000a900473ffffffffffffffffffffffffffffffffffffffff1681565b60006107e63073ffffffffffffffffffffffffffffffffffffffff16316107d861057b565b6109db90919063ffffffff16565b905090565b60045481565b60085481565b600061080161057b565b3073ffffffffffffffffffffffffffffffffffffffff163103905090565b6000806000809054906101000a900473ffffffffffffffffffffffffffffffffffffffff1673ffffffffffffffffffffffffffffffffffffffff163373ffffffffffffffffffffffffffffffffffffffff1614151561087d57600080fd5b6108856107f7565b915060008213151561089657600080fd5b819050808311156108a657600080fd5b7f5b6b431d4476a211bb7d41c20d1aab9ae2321deee0d20be3d9fc9b1093fa6e3d836040518082815260200191505060405180910390a16000809054906101000a900473ffffffffffffffffffffffffffffffffffffffff1673ffffffffffffffffffffffffffffffffffffffff166108fc849081150290604051600060405180830381858888f19350505050151561093e57600080fd5b505050565b600760009054906101000a900460ff1681565b600080828401905083811015151561096a57fe5b8091505092915050565b600082821115151561098257fe5b818303905092915050565b600080828481151561099b57fe5b0490508091505092915050565b600080828402905060008414806109c957508284828115156109c657fe5b04145b15156109d157fe5b8091505092915050565b60008183106109ea57816109ec565b825b9050929150505600a165627a7a72305820da26983994b3af629605dd6cd62800d867e61f0e4e69b2b49332d32c55f9cadd0029a165627a7a72305820c6ea4099805b3cb50f8e08d8a368c0d8ec0d15bfde04a0e6031118145f23c0920029",
  "source": "pragma solidity ^0.4.11;\n\nimport 'zeppelin-solidity/contracts/math/SafeMath.sol';\nimport 'zeppelin-solidity/contracts/math/Math.sol';\n\n/**\n * @title Standing order\n * @dev Lifecycle of a standing order:\n *  - the payment amount per interval is set at construction time and can not be changed afterwards\n *  - the payee is set by the owner and can not be changed after creation\n *  - at <startTime> (unix timestamp) the first payment is due\n *  - every <intervall> seconds the next payment is due\n *  - the owner can add funds to the order contract at any time\n *  - the owner can withdraw only funds that do not (yet) belong to the payee\n *  - the owner can terminate a standingorder anytime. Termination results in:\n *    - No further funding being allowed\n *    - order marked as \"terminated\" and not being displayed anymore in owner UI\n *    - as long as there are uncollected funds entitled to the payee, it is still displayed in payee UI\n *    - the payee can still collect funds owned to him\n *\n *   * Terminology *\n *   \"withdraw\" -> performed by owner - transfer funds stored in contract back to owner\n *   \"collect\"  -> performed by payee - transfer entitled funds from contract to payee\n *\n *   * How does a payment work? *\n *   Since a contract can not trigger a payment by itself, it provides the method \"collectFunds\" for the payee.\n *   The payee can always query the contract to determine how many funds he is entitled to collect.\n *   The payee can call \"collectFunds\" to initiate transfer of entitled funds to his address.\n */\ncontract StandingOrder {\n\n    using SafeMath for uint;\n    using Math for uint;\n\n    address public owner;        /** The owner of this order */\n    address public payee;        /** The payee is the receiver of funds */\n    uint public startTime;       /** Date and time (unix timestamp - seconds since 1970) when first payment can be claimed by payee */\n    uint public paymentInterval; /** Interval for payments (Unit: seconds) */\n    uint public paymentAmount;   /** How much can payee claim per period (Unit: Wei) */\n    uint public claimedFunds;    /** How much funds have been claimed already (Unit: Wei) */\n    string public ownerLabel;    /** Label (set by contract owner) */\n    bool public isTerminated;    /** Marks order as terminated */\n    uint public terminationTime; /** Date and time (unix timestamp - seconds since 1970) when order terminated */\n\n    modifier onlyPayee() {\n        require(msg.sender == payee);\n        _;\n    }\n\n    modifier onlyOwner() {\n        require(msg.sender == owner);\n        _;\n    }\n\n    /** Event triggered when payee collects funds */\n    event Collect(uint amount);\n    /** Event triggered when contract gets funded */\n    event Fund(uint amount);\n    /** Event triggered when owner withdraws funds */\n    event Withdraw(uint amount);\n\n    /**\n     * Constructor\n     * @param _owner The owner of the contract\n     * @param _payee The payee - the account that can collect payments from this contract\n     * @param _paymentInterval Interval for payments, unit: seconds\n     * @param _paymentAmount The amount payee can claim per period, unit: wei\n     * @param _startTime Date and time (unix timestamp - seconds since 1970) when first payment can be claimed by payee\n     * @param _label Label for contract, e.g \"rent\" or \"weekly paycheck\"\n     */\n    function StandingOrder(\n        address _owner,\n        address _payee,\n        uint _paymentInterval,\n        uint _paymentAmount,\n        uint _startTime,\n        string _label\n    )\n        payable\n    {\n        // Sanity check parameters\n        require(_paymentInterval > 0);\n        require(_paymentAmount > 0);\n        // Following check is not exact for unicode strings, but here i just want to make sure that some label is provided\n        // See https://ethereum.stackexchange.com/questions/13862/is-it-possible-to-check-string-variables-length-inside-the-contract/13886\n        require(bytes(_label).length > 2);\n\n        // Set owner to _owner, as msg.sender is the StandingOrderFactory contract\n        owner = _owner;\n\n        payee = _payee;\n        paymentInterval = _paymentInterval;\n        paymentAmount = _paymentAmount;\n        ownerLabel = _label;\n        startTime = _startTime;\n        isTerminated = false;\n    }\n\n    /**\n     * Fallback function.\n     * Allows adding funds to existing order. Will throw in case the order is terminated!\n     */\n    function() payable {\n        if (isTerminated) {\n            // adding funds not allowed for terminated orders\n            revert();\n        }\n        // Log Fund event\n        Fund(msg.value);\n    }\n\n    /**\n     * Determine how much funds payee is entitled to collect\n     * Note that this might be more than actual funds available!\n     * @return Number of wei that payee is entitled to collect\n     */\n    function getEntitledFunds() constant returns (uint) {\n        // First check if the contract startTime has been reached at all\n        if (now < startTime) {\n            // startTime not yet reached\n            return 0;\n        }\n\n        // startTime has been reached, so add first payment\n        uint entitledAmount = paymentAmount;\n\n        // Determine endTime for calculation. If order has been terminated -> terminationTime, otherwise current time\n        uint endTime = isTerminated ? terminationTime : now;\n\n        // calculate number of complete intervals since startTime\n        uint runtime = endTime.sub(startTime);\n        uint completeIntervals = runtime.div(paymentInterval); // Division always truncates, so implicitly rounding down here.\n        entitledAmount = entitledAmount.add(completeIntervals.mul(paymentAmount));\n\n        // subtract already collected funds\n        return entitledAmount.sub(claimedFunds);\n    }\n\n    /**\n     * Determine how much funds are available for payee to collect\n     * This can be less than the entitled amount if the contract does not have enough funds to cover the due payments,\n     * in other words: The owner has not put enough funds into the contract.\n     * @return Number of wei that payee can collect\n     */\n    function getUnclaimedFunds() constant returns (uint) {\n        // don't return more than available balance\n        return getEntitledFunds().min256(this.balance);\n    }\n\n    /**\n     * Determine how much funds are still owned by owner (not yet reserved for payee)\n     * Note that this can be negative in case contract is not funded enough to cover entitled amount for payee!\n     * @return number of wei belonging owner, negative if contract is missing funds to cover payments\n     */\n    function getOwnerFunds() constant returns (int) {\n        // Conversion from unsigned int to int will produce unexpected results only for very large\n        // numbers (2^255 and greater). This is about 5.7e+58 ether.\n        // -> There will be no situation when the contract balance (this.balance) will hit this limit\n        // -> getEntitledFunds() might end up hitting this limit when the contract creator INTENTIONALLY sets\n        //    any combination of absurdly high payment rate, low interval or a startTime way in the past.\n        //    Being entitled to more than 5.7e+58 ether obviously will never be an expected usecase\n        // Therefor the conversion can be considered safe here.\n        return int256(this.balance) - int256(getEntitledFunds());\n    }\n\n    /**\n     * Collect payment\n     * Can only be called by payee. This will transfer all available funds (see getUnclaimedFunds) to payee\n     * @return amount that has been transferred!\n     */\n    function collectFunds() onlyPayee returns(uint) {\n        uint amount = getUnclaimedFunds();\n        if (amount <= 0) {\n            // nothing to collect :-(\n            revert();\n        }\n\n        // keep track of collected funds\n        claimedFunds = claimedFunds.add(amount);\n\n        // create log entry\n        Collect(amount);\n\n        // initiate transfer of unclaimed funds to payee\n        payee.transfer(amount);\n\n        return amount;\n    }\n\n    /**\n     * Withdraw requested amount back to owner.\n     * Only funds not (yet) reserved for payee can be withdrawn. So it is not possible for the owner\n     * to withdraw unclaimed funds - They can only be claimed by payee!\n     * Withdrawing funds does not terminate the order, at any time owner can fund it again!\n     * @param amount Number of wei owner wants to withdraw\n     */\n    function WithdrawOwnerFunds(uint amount) onlyOwner {\n        int intOwnerFunds = getOwnerFunds(); // this might be negative in case of underfunded contract!\n        if (intOwnerFunds <= 0) {\n            // nothing available to withdraw :-(\n            revert();\n        }\n        // conversion int -> uint is safe here as I'm checking <= 0 above!\n        uint256 ownerFunds = uint256(intOwnerFunds);\n\n        if (amount > ownerFunds) {\n            // Trying to withdraw more than available!\n            revert();\n        }\n\n        // Log Withdraw event\n        Withdraw(amount);\n\n        owner.transfer(amount);\n    }\n\n    /**\n     * Terminate order\n     * Marks the order as terminated.\n     * Can only be executed if no ownerfunds are left\n     */\n    function Terminate() onlyOwner {\n        assert(getOwnerFunds() <= 0);\n        terminationTime = now;\n        isTerminated = true;\n    }\n}\n\n\n/**\n * @title StandingOrder factory\n */\ncontract StandingOrderFactory {\n    // keep track who issued standing orders\n    mapping (address => StandingOrder[]) public standingOrdersByOwner;\n    // keep track of payees of standing orders\n    mapping (address => StandingOrder[]) public standingOrdersByPayee;\n\n    // Events\n    event LogOrderCreated(\n        address orderAddress,\n        address indexed owner,\n        address indexed payee\n    );\n\n    /**\n     * Create a new standing order\n     * The owner of the new order will be the address that called this function (msg.sender)\n     * @param _payee The payee - the account that can collect payments from this contract\n     * @param _paymentInterval Interval for payments, unit: seconds\n     * @param _paymentAmount The amount payee can claim per period, unit: wei\n     * @param _startTime Date and time (unix timestamp - seconds since 1970) when first payment can be claimed by payee\n     * @param _label Label for contract, e.g \"rent\" or \"weekly paycheck\"\n     * @return Address of new created standingOrder contract\n     */\n    function createStandingOrder(address _payee, uint _paymentAmount, uint _paymentInterval, uint _startTime, string _label) returns (StandingOrder) {\n        StandingOrder so = new StandingOrder(msg.sender, _payee, _paymentInterval, _paymentAmount, _startTime, _label);\n        standingOrdersByOwner[msg.sender].push(so);\n        standingOrdersByPayee[_payee].push(so);\n        LogOrderCreated(so, msg.sender, _payee);\n        return so;\n    }\n\n    /**\n     * Determine how many orders are owned by caller (msg.sender)\n     * @return Number of orders\n     */\n    function getNumOrdersByOwner() constant returns (uint) {\n        return standingOrdersByOwner[msg.sender].length;\n    }\n\n    /**\n     * Get order by index from the Owner mapping\n     * @param index Index of order\n     * @return standing order address\n     */\n    function getOwnOrderByIndex(uint index) constant returns (StandingOrder) {\n        return standingOrdersByOwner[msg.sender][index];\n    }\n\n    /**\n     * Determine how many orders are paying to caller (msg.sender)\n     * @return Number of orders\n     */\n    function getNumOrdersByPayee() constant returns (uint) {\n        return standingOrdersByPayee[msg.sender].length;\n    }\n\n    /**\n     * Get order by index from the Payee mapping\n     * @param index Index of order\n     * @return standing order address\n     */\n    function getPaidOrderByIndex(uint index) constant returns (StandingOrder) {\n        return standingOrdersByPayee[msg.sender][index];\n    }\n}\n",
  "sourcePath": "/home/michael/WebstormProjects/StandingOrderDapp/contracts/StandingOrder.sol",
  "compiler": {
    "name": "solc",
    "version": "0.4.18+commit.9cf6e910.Emscripten.clang"
  },
  "schemaVersion": "1.0.1",
  "updatedAt": "2017-11-22T10:22:07.743Z"
}